{
  "address": "0x40df53F12623F9397a2b7f6F8dBa990304e5Dc4c",
  "abi": [
    {
      "inputs": [
        {
          "internalType": "address",
          "name": "_messageBus",
          "type": "address"
        },
        {
          "internalType": "address",
          "name": "_nativeWrap",
          "type": "address"
        },
        {
          "internalType": "address",
          "name": "_signer",
          "type": "address"
        },
        {
          "internalType": "address",
          "name": "_feeCollector",
          "type": "address"
        },
        {
          "internalType": "string[]",
          "name": "_funcSigs",
          "type": "string[]"
        },
        {
          "internalType": "address[]",
          "name": "_codecs",
          "type": "address[]"
        },
        {
          "internalType": "address[]",
          "name": "_supportedDexList",
          "type": "address[]"
        },
        {
          "internalType": "string[]",
          "name": "_supportedDexFuncs",
          "type": "string[]"
        },
        {
          "internalType": "bool",
          "name": "_testMode",
          "type": "bool"
        }
      ],
      "stateMutability": "nonpayable",
      "type": "constructor"
    },
    {
      "anonymous": false,
      "inputs": [
        {
          "indexed": false,
          "internalType": "bytes4",
          "name": "selector",
          "type": "bytes4"
        },
        {
          "indexed": false,
          "internalType": "address",
          "name": "codec",
          "type": "address"
        }
      ],
      "name": "CodecUpdated",
      "type": "event"
    },
    {
      "anonymous": false,
      "inputs": [
        {
          "indexed": false,
          "internalType": "bytes32",
          "name": "id",
          "type": "bytes32"
        },
        {
          "indexed": false,
          "internalType": "uint256",
          "name": "amountIn",
          "type": "uint256"
        },
        {
          "indexed": false,
          "internalType": "address",
          "name": "tokenIn",
          "type": "address"
        },
        {
          "indexed": false,
          "internalType": "uint256",
          "name": "amountOut",
          "type": "uint256"
        },
        {
          "indexed": false,
          "internalType": "address",
          "name": "tokenOut",
          "type": "address"
        }
      ],
      "name": "DirectSwap",
      "type": "event"
    },
    {
      "anonymous": false,
      "inputs": [
        {
          "indexed": false,
          "internalType": "address",
          "name": "from",
          "type": "address"
        },
        {
          "indexed": false,
          "internalType": "address",
          "name": "to",
          "type": "address"
        }
      ],
      "name": "FeeCollectorUpdated",
      "type": "event"
    },
    {
      "anonymous": false,
      "inputs": [
        {
          "indexed": false,
          "internalType": "address",
          "name": "messageBus",
          "type": "address"
        }
      ],
      "name": "MessageBusUpdated",
      "type": "event"
    },
    {
      "anonymous": false,
      "inputs": [
        {
          "indexed": false,
          "internalType": "address",
          "name": "nativeWrap",
          "type": "address"
        }
      ],
      "name": "NativeWrapUpdated",
      "type": "event"
    },
    {
      "anonymous": false,
      "inputs": [
        {
          "indexed": true,
          "internalType": "address",
          "name": "previousOwner",
          "type": "address"
        },
        {
          "indexed": true,
          "internalType": "address",
          "name": "newOwner",
          "type": "address"
        }
      ],
      "name": "OwnershipTransferred",
      "type": "event"
    },
    {
      "anonymous": false,
      "inputs": [
        {
          "indexed": false,
          "internalType": "bytes32",
          "name": "id",
          "type": "bytes32"
        },
        {
          "indexed": false,
          "internalType": "uint256",
          "name": "dstAmount",
          "type": "uint256"
        },
        {
          "indexed": false,
          "internalType": "uint256",
          "name": "refundAmount",
          "type": "uint256"
        },
        {
          "indexed": false,
          "internalType": "address",
          "name": "refundToken",
          "type": "address"
        },
        {
          "indexed": false,
          "internalType": "uint256",
          "name": "feeCollected",
          "type": "uint256"
        },
        {
          "indexed": false,
          "internalType": "enum TransferSwapper.RequestStatus",
          "name": "status",
          "type": "uint8"
        }
      ],
      "name": "RequestDone",
      "type": "event"
    },
    {
      "anonymous": false,
      "inputs": [
        {
          "indexed": false,
          "internalType": "bytes32",
          "name": "id",
          "type": "bytes32"
        },
        {
          "indexed": false,
          "internalType": "bytes32",
          "name": "transferId",
          "type": "bytes32"
        },
        {
          "indexed": false,
          "internalType": "uint64",
          "name": "dstChainId",
          "type": "uint64"
        },
        {
          "indexed": false,
          "internalType": "uint256",
          "name": "srcAmount",
          "type": "uint256"
        },
        {
          "indexed": false,
          "internalType": "address",
          "name": "srcToken",
          "type": "address"
        },
        {
          "indexed": false,
          "internalType": "address",
          "name": "dstToken",
          "type": "address"
        },
        {
          "indexed": false,
          "internalType": "address",
          "name": "bridgeOutReceiver",
          "type": "address"
        }
      ],
      "name": "RequestSent",
      "type": "event"
    },
    {
      "anonymous": false,
      "inputs": [
        {
          "indexed": false,
          "internalType": "address",
          "name": "from",
          "type": "address"
        },
        {
          "indexed": false,
          "internalType": "address",
          "name": "to",
          "type": "address"
        }
      ],
      "name": "SignerUpdated",
      "type": "event"
    },
    {
      "anonymous": false,
      "inputs": [
        {
          "indexed": false,
          "internalType": "address",
          "name": "dex",
          "type": "address"
        },
        {
          "indexed": false,
          "internalType": "bytes4",
          "name": "selector",
          "type": "bytes4"
        },
        {
          "indexed": false,
          "internalType": "bool",
          "name": "enabled",
          "type": "bool"
        }
      ],
      "name": "SupportedDexUpdated",
      "type": "event"
    },
    {
      "inputs": [
        {
          "internalType": "uint256",
          "name": "",
          "type": "uint256"
        }
      ],
      "name": "codecs",
      "outputs": [
        {
          "internalType": "address",
          "name": "",
          "type": "address"
        }
      ],
      "stateMutability": "view",
      "type": "function"
    },
    {
      "inputs": [
        {
          "internalType": "address[]",
          "name": "_tokens",
          "type": "address[]"
        },
        {
          "internalType": "address",
          "name": "_to",
          "type": "address"
        }
      ],
      "name": "collectFee",
      "outputs": [],
      "stateMutability": "nonpayable",
      "type": "function"
    },
    {
      "inputs": [
        {
          "internalType": "address",
          "name": "",
          "type": "address"
        },
        {
          "internalType": "bytes4",
          "name": "",
          "type": "bytes4"
        }
      ],
      "name": "dexRegistry",
      "outputs": [
        {
          "internalType": "bool",
          "name": "",
          "type": "bool"
        }
      ],
      "stateMutability": "view",
      "type": "function"
    },
    {
      "inputs": [
        {
          "internalType": "bytes32",
          "name": "",
          "type": "bytes32"
        }
      ],
      "name": "directBridgeSenders",
      "outputs": [
        {
          "internalType": "address",
          "name": "",
          "type": "address"
        }
      ],
      "stateMutability": "view",
      "type": "function"
    },
    {
      "inputs": [
        {
          "internalType": "address",
          "name": "_sender",
          "type": "address"
        },
        {
          "internalType": "uint64",
          "name": "_srcChainId",
          "type": "uint64"
        },
        {
          "internalType": "bytes",
          "name": "_message",
          "type": "bytes"
        },
        {
          "internalType": "address",
          "name": "_executor",
          "type": "address"
        }
      ],
      "name": "executeMessage",
      "outputs": [
        {
          "internalType": "enum IMessageReceiverApp.ExecutionStatus",
          "name": "",
          "type": "uint8"
        }
      ],
      "stateMutability": "payable",
      "type": "function"
    },
    {
      "inputs": [
        {
          "internalType": "address",
          "name": "",
          "type": "address"
        },
        {
          "internalType": "address",
          "name": "_token",
          "type": "address"
        },
        {
          "internalType": "uint256",
          "name": "_amount",
          "type": "uint256"
        },
        {
          "internalType": "uint64",
          "name": "",
          "type": "uint64"
        },
        {
          "internalType": "bytes",
          "name": "_message",
          "type": "bytes"
        },
        {
          "internalType": "address",
          "name": "",
          "type": "address"
        }
      ],
      "name": "executeMessageWithTransfer",
      "outputs": [
        {
          "internalType": "enum IMessageReceiverApp.ExecutionStatus",
          "name": "",
          "type": "uint8"
        }
      ],
      "stateMutability": "payable",
      "type": "function"
    },
    {
      "inputs": [
        {
          "internalType": "address",
          "name": "",
          "type": "address"
        },
        {
          "internalType": "address",
          "name": "_token",
          "type": "address"
        },
        {
          "internalType": "uint256",
          "name": "_amount",
          "type": "uint256"
        },
        {
          "internalType": "uint64",
          "name": "",
          "type": "uint64"
        },
        {
          "internalType": "bytes",
          "name": "_message",
          "type": "bytes"
        },
        {
          "internalType": "address",
          "name": "",
          "type": "address"
        }
      ],
      "name": "executeMessageWithTransferFallback",
      "outputs": [
        {
          "internalType": "enum IMessageReceiverApp.ExecutionStatus",
          "name": "",
          "type": "uint8"
        }
      ],
      "stateMutability": "payable",
      "type": "function"
    },
    {
      "inputs": [
        {
          "internalType": "address",
          "name": "_token",
          "type": "address"
        },
        {
          "internalType": "uint256",
          "name": "_amount",
          "type": "uint256"
        },
        {
          "internalType": "bytes",
          "name": "_message",
          "type": "bytes"
        },
        {
          "internalType": "address",
          "name": "",
          "type": "address"
        }
      ],
      "name": "executeMessageWithTransferRefund",
      "outputs": [
        {
          "internalType": "enum IMessageReceiverApp.ExecutionStatus",
          "name": "",
          "type": "uint8"
        }
      ],
      "stateMutability": "payable",
      "type": "function"
    },
    {
      "inputs": [],
      "name": "feeCollector",
      "outputs": [
        {
          "internalType": "address",
          "name": "",
          "type": "address"
        }
      ],
      "stateMutability": "view",
      "type": "function"
    },
    {
      "inputs": [],
      "name": "messageBus",
      "outputs": [
        {
          "internalType": "address",
          "name": "",
          "type": "address"
        }
      ],
      "stateMutability": "view",
      "type": "function"
    },
    {
      "inputs": [],
      "name": "nativeWrap",
      "outputs": [
        {
          "internalType": "address",
          "name": "",
          "type": "address"
        }
      ],
      "stateMutability": "view",
      "type": "function"
    },
    {
      "inputs": [],
      "name": "owner",
      "outputs": [
        {
          "internalType": "address",
          "name": "",
          "type": "address"
        }
      ],
      "stateMutability": "view",
      "type": "function"
    },
    {
      "inputs": [],
      "name": "renounceOwnership",
      "outputs": [],
      "stateMutability": "nonpayable",
      "type": "function"
    },
    {
      "inputs": [
        {
          "internalType": "bytes4",
          "name": "",
          "type": "bytes4"
        }
      ],
      "name": "selector2codec",
      "outputs": [
        {
          "internalType": "contract ICodec",
          "name": "",
          "type": "address"
        }
      ],
      "stateMutability": "view",
      "type": "function"
    },
    {
      "inputs": [
        {
          "internalType": "string",
          "name": "_funcSig",
          "type": "string"
        },
        {
          "internalType": "address",
          "name": "_codec",
          "type": "address"
        }
      ],
      "name": "setCodec",
      "outputs": [],
      "stateMutability": "nonpayable",
      "type": "function"
    },
    {
      "inputs": [
        {
          "internalType": "address",
          "name": "_feeCollector",
          "type": "address"
        }
      ],
      "name": "setFeeCollector",
      "outputs": [],
      "stateMutability": "nonpayable",
      "type": "function"
    },
    {
      "inputs": [
        {
          "internalType": "address",
          "name": "_messageBus",
          "type": "address"
        }
      ],
      "name": "setMessageBus",
      "outputs": [],
      "stateMutability": "nonpayable",
      "type": "function"
    },
    {
      "inputs": [
        {
          "internalType": "address",
          "name": "_nativeWrap",
          "type": "address"
        }
      ],
      "name": "setNativeWrap",
      "outputs": [],
      "stateMutability": "nonpayable",
      "type": "function"
    },
    {
      "inputs": [
        {
          "internalType": "address",
          "name": "_signer",
          "type": "address"
        }
      ],
      "name": "setSigner",
      "outputs": [],
      "stateMutability": "nonpayable",
      "type": "function"
    },
    {
      "inputs": [
        {
          "internalType": "address",
          "name": "_dex",
          "type": "address"
        },
        {
          "internalType": "bytes4",
          "name": "_selector",
          "type": "bytes4"
        },
        {
          "internalType": "bool",
          "name": "_enabled",
          "type": "bool"
        }
      ],
      "name": "setSupportedDex",
      "outputs": [],
      "stateMutability": "nonpayable",
      "type": "function"
    },
    {
      "inputs": [],
      "name": "signer",
      "outputs": [
        {
          "internalType": "address",
          "name": "",
          "type": "address"
        }
      ],
      "stateMutability": "view",
      "type": "function"
    },
    {
      "inputs": [],
      "name": "testMode",
      "outputs": [
        {
          "internalType": "bool",
          "name": "",
          "type": "bool"
        }
      ],
      "stateMutability": "view",
      "type": "function"
    },
    {
      "inputs": [
        {
          "internalType": "address",
          "name": "newOwner",
          "type": "address"
        }
      ],
      "name": "transferOwnership",
      "outputs": [],
      "stateMutability": "nonpayable",
      "type": "function"
    },
    {
      "inputs": [
        {
          "internalType": "address",
          "name": "_dstTransferSwapper",
          "type": "address"
        },
        {
          "components": [
            {
              "internalType": "address",
              "name": "receiver",
              "type": "address"
            },
            {
              "internalType": "uint64",
              "name": "dstChainId",
              "type": "uint64"
            },
            {
              "internalType": "uint32",
              "name": "maxBridgeSlippage",
              "type": "uint32"
            },
            {
              "internalType": "enum MsgDataTypes.BridgeSendType",
              "name": "bridgeType",
              "type": "uint8"
            },
            {
              "internalType": "uint64",
              "name": "nonce",
              "type": "uint64"
            },
            {
              "internalType": "bool",
              "name": "nativeIn",
              "type": "bool"
            },
            {
              "internalType": "bool",
              "name": "nativeOut",
              "type": "bool"
            },
            {
              "internalType": "uint256",
              "name": "fee",
              "type": "uint256"
            },
            {
              "internalType": "uint256",
              "name": "feeDeadline",
              "type": "uint256"
            },
            {
              "internalType": "bytes",
              "name": "feeSig",
              "type": "bytes"
            },
            {
              "internalType": "uint256",
              "name": "amountIn",
              "type": "uint256"
            },
            {
              "internalType": "address",
              "name": "tokenIn",
              "type": "address"
            },
            {
              "internalType": "address",
              "name": "dstTokenOut",
              "type": "address"
            },
            {
              "internalType": "bool",
              "name": "allowPartialFill",
              "type": "bool"
            }
          ],
          "internalType": "struct TransferSwapper.TransferDescription",
          "name": "_desc",
          "type": "tuple"
        },
        {
          "components": [
            {
              "internalType": "address",
              "name": "dex",
              "type": "address"
            },
            {
              "internalType": "bytes",
              "name": "data",
              "type": "bytes"
            }
          ],
          "internalType": "struct ICodec.SwapDescription[]",
          "name": "_srcSwaps",
          "type": "tuple[]"
        },
        {
          "components": [
            {
              "internalType": "address",
              "name": "dex",
              "type": "address"
            },
            {
              "internalType": "bytes",
              "name": "data",
              "type": "bytes"
            }
          ],
          "internalType": "struct ICodec.SwapDescription[]",
          "name": "_dstSwaps",
          "type": "tuple[]"
        }
      ],
      "name": "transferWithSwap",
      "outputs": [],
      "stateMutability": "payable",
      "type": "function"
    },
    {
      "stateMutability": "payable",
      "type": "receive"
    }
  ],
  "transactionHash": "0x2ccd908d205126e8a8c1147b793ef16118bd2c88eeea61daa302a2033f92f808",
  "args": [
    "0x7d43AABC515C356145049227CeE54B608342c0ad",
    "0xB31f66AA3C1e785363F0875A1B74E27b85FD66c7",
    "0x9532f934EfcE6c4Bf5BA078b25fDd81a780FBdfB",
    "0x9532f934EfcE6c4Bf5BA078b25fDd81a780FBdfB",
    [
      "swapExactTokensForTokens(uint256,uint256,address[],address,uint256)",
      "exchange(int128,int128,uint256,uint256)",
      "exchange_underlying(int128,int128,uint256,uint256)",
      "exchange_underlying(int128,int128,uint256,uint256,address)",
      "swapTokensForTokens(address[],address[],uint256,uint256,address,uint256)"
    ],
    [
      "0xb3f5Fbe570C4287ac4EAbD3DcA5ca4E15526C625",
      "0x13e25B709eF6d707afb699E86CA85a76F7e75BE4",
      "0x2687bA35446B7C00cf47839167BB57B2A4635CAC",
      "0x2e492fde043d7E47C99a54765903B9D55705f85c",
      "0x9Ae9AE20f5C022e9edd79673101B6a0F37BBaEC4"
    ],
    [
      "0x60aE616a2155Ee3d9A68541Ba4544862310933d4",
      "0x7f90122BF0700F9E7e1F688fe926940E8839F353",
      "0x3a43A5851A3e3E0e25A3c1089670269786be1577",
      "0xAEA2E71b631fA93683BCF256A8689dFa0e094fcD",
      "0xE013593CEA239E445d2271106836b00C9E7356ae",
      "0x73256EC7575D999C360c1EeC118ECbEFd8DA7D12"
    ],
    [
      "swapExactTokensForTokens(uint256,uint256,address[],address,uint256)",
      "exchange_underlying(int128,int128,uint256,uint256)",
      "exchange(int128,int128,uint256,uint256)",
      "exchange(int128,int128,uint256,uint256)",
      "exchange_underlying(int128,int128,uint256,uint256,address)",
      "swapTokensForTokens(address[],address[],uint256,uint256,address,uint256)"
    ],
    false
  ],
  "numDeployments": 3,
  "solcInputHash": "e7e51127334ce4bcad107b928f11a47f",
  "bytecode": "0x60806040523480156200001157600080fd5b5060405162005a5438038062005a5483398101604081905262000034916200062b565b858786868686818185856200004933620001f0565b8051825114620000765760405162461bcd60e51b81526004016200006d9062000796565b60405180910390fd5b60005b8251811015620000ef5760008382815181106200009a576200009a620007a8565b6020026020010151805190602001209050620000d981848481518110620000c557620000c5620007a8565b60200260200101516200024060201b60201c565b5080620000e681620007d4565b91505062000079565b50505060005b82518110156200016d576000828281518110620001165762000116620007a8565b602002602001015180519060200120905062000157848381518110620001405762000140620007a8565b6020026020010151826001620002b260201b60201c565b50806200016481620007d4565b915050620000f5565b5050600580546001600160a01b039788166001600160a01b03199182161790915560068054988816988216989098179097555050600160078190558054600880549f87169f9097169e909e17909555505050911515600160a01b026001600160a81b0319909916999091169890981796909617909655506200081f945050505050565b600080546001600160a01b038381166001600160a01b0319831681178455604051919092169283917f8be0079c531659141344cd1fd0a4f28419497f9722a3daafe3b4186f6b6457e09190a35050565b6001600160e01b0319909116600090815260026020526040812080546001600160a01b039093166001600160a01b031993841681179091556003805460018101825592527fc2575a0e9e593c00f959f8c92f12db2869c3395a3b0502d05e2516446f71f85b9091018054909216179055565b6001600160a01b03831660009081526004602090815260408083206001600160e01b03198616845290915290205460ff1680151582151514156200030a5760405162461bcd60e51b81526004016200006d906200080d565b506001600160a01b0390921660009081526004602090815260408083206001600160e01b0319909416835292905220805491151560ff19909216919091179055565b60006001600160a01b0382165b92915050565b6200036a816200034c565b81146200037657600080fd5b50565b805162000359816200035f565b634e487b7160e01b600052604160045260246000fd5b601f19601f83011681018181106001600160401b0382111715620003c457620003c462000386565b6040525050565b6000620003d760405190565b9050620003e582826200039c565b919050565b60006001600160401b0382111562000406576200040662000386565b5060209081020190565b60006001600160401b038211156200042c576200042c62000386565b601f19601f83011660200192915050565b60005b838110156200045a57818101518382015260200162000440565b838111156200046a576000848401525b50505050565b600062000487620004818462000410565b620003cb565b905082815260208101848484011115620004a457620004a4600080fd5b620004b18482856200043d565b509392505050565b600082601f830112620004cf57620004cf600080fd5b8151620004e184826020860162000470565b949350505050565b6000620004fa6200048184620003ea565b838152905060208082019084028301858111156200051b576200051b600080fd5b835b81811015620005615780516001600160401b03811115620005415762000541600080fd5b808601620005508982620004b9565b85525050602092830192016200051d565b5050509392505050565b600082601f830112620005815762000581600080fd5b8151620004e1848260208601620004e9565b6000620005a46200048184620003ea565b83815290506020808201908402830185811115620005c557620005c5600080fd5b835b81811015620005615780620005dd888262000379565b84525060209283019201620005c7565b600082601f830112620006035762000603600080fd5b8151620004e184826020860162000593565b8015156200036a565b8051620003598162000615565b60008060008060008060008060006101208a8c0312156200064f576200064f600080fd5b60006200065d8c8c62000379565b9950506020620006708c828d0162000379565b9850506040620006838c828d0162000379565b9750506060620006968c828d0162000379565b96505060808a01516001600160401b03811115620006b757620006b7600080fd5b620006c58c828d016200056b565b95505060a08a01516001600160401b03811115620006e657620006e6600080fd5b620006f48c828d01620005ed565b94505060c08a01516001600160401b03811115620007155762000715600080fd5b620007238c828d01620005ed565b93505060e08a01516001600160401b03811115620007445762000744600080fd5b620007528c828d016200056b565b925050610100620007668c828d016200061e565b9150509295985092959850929598565b60068152600060208201656c656e206d6d60d01b815291505b5060200190565b60208082528101620003598162000776565b634e487b7160e01b600052603260045260246000fd5b634e487b7160e01b600052601160045260246000fd5b6000600019821415620007eb57620007eb620007be565b5060010190565b600381526000602082016206e6f760ec1b815291506200078f565b602080825281016200035981620007f2565b615225806200082f6000396000f3fe60806040526004361061018f5760003560e01c806391ec04b5116100d6578063c5bccca31161007f578063efcfd8f511610059578063efcfd8f514610451578063f2fde38b14610471578063fbf5d7631461049157600080fd5b8063c5bccca3146103fd578063cd9ea3421461041d578063d8318ae51461043e57600080fd5b8063a1c9d41e116100b0578063a1c9d41e14610387578063a42dce80146103bd578063c415b95c146103dd57600080fd5b806391ec04b51461030c5780639c649fdf14610354578063a1a227fa1461036757600080fd5b8063675df759116101385780637cd2bffc116101125780637cd2bffc146102bb57806382665a8f146102ce5780638da5cb5b146102ee57600080fd5b8063675df759146102665780636c19e78314610286578063715018a6146102a657600080fd5b8063547cad1211610169578063547cad12146102115780635ab7afc6146102335780635b5a66a71461024657600080fd5b80630bcb49821461019b578063238ac933146101c4578063457bfa2f146101f157600080fd5b3661019657005b600080fd5b6101ae6101a9366004613296565b6104d4565b6040516101bb9190613369565b60405180910390f35b3480156101d057600080fd5b506005546101e4906001600160a01b031681565b6040516101bb9190613380565b3480156101fd57600080fd5b506008546101e4906001600160a01b031681565b34801561021d57600080fd5b5061023161022c36600461338e565b6105cc565b005b6101ae6102413660046134b8565b61064d565b34801561025257600080fd5b5061023161026136600461338e565b61075d565b34801561027257600080fd5b5061023161028136600461358b565b6107d2565b34801561029257600080fd5b506102316102a136600461338e565b610847565b3480156102b257600080fd5b506102316108d0565b6101ae6102c93660046134b8565b610906565b3480156102da57600080fd5b506101e46102e93660046135db565b610b03565b3480156102fa57600080fd5b506000546001600160a01b03166101e4565b34801561031857600080fd5b506103476103273660046135fc565b600460209081526000928352604080842090915290825290205460ff1681565b6040516101bb9190613641565b6101ae61036236600461364f565b610b2d565b34801561037357600080fd5b506001546101e4906001600160a01b031681565b34801561039357600080fd5b506101e46103a23660046135db565b6009602052600090815260409020546001600160a01b031681565b3480156103c957600080fd5b506102316103d836600461338e565b610b74565b3480156103e957600080fd5b506006546101e4906001600160a01b031681565b34801561040957600080fd5b50610231610418366004613687565b610bf1565b34801561042957600080fd5b5060015461034790600160a01b900460ff1681565b61023161044c36600461373f565b610ced565b34801561045d57600080fd5b5061023161046c3660046137fc565b610f6f565b34801561047d57600080fd5b5061023161048c36600461338e565b611156565b34801561049d57600080fd5b506104c76104ac36600461383a565b6002602052600090815260409020546001600160a01b031681565b6040516101bb919061389d565b600154600090600160a01b900460ff1661051b576001546001600160a01b0316331461051b5760405162461bcd60e51b8152600401610512906138e2565b60405180910390fd5b6002600754141561053e5760405162461bcd60e51b815260040161051290613926565b6002600755600061055184860186613b10565b905061055d87876111b2565b61056e878783604001516000611338565b7f83fb878bc850fecc32634e2924a47daa8db823de1e2eb33084be9fd29f22c24581600001516000888a856080015160026040516105b196959493929190613b66565b60405180910390a16001915050600160075595945050505050565b6000546001600160a01b031633146105f65760405162461bcd60e51b815260040161051290613bf2565b600180546001600160a01b0319166001600160a01b0383169081179091556040517f3f8223bcd8b3b875473e9f9e14e1ad075451a2b5ffd31591655da9a01516bf5e9161064291613380565b60405180910390a150565b600154600090600160a01b900460ff1661068b576001546001600160a01b0316331461068b5760405162461bcd60e51b8152600401610512906138e2565b600260075414156106ae5760405162461bcd60e51b815260040161051290613926565b600260075582516000906106cb9085016020908101908601613e3b565b90506106d787876111b2565b60008160800151876106e99190613e8c565b90506106fc888284604001516000611338565b7f83fb878bc850fecc32634e2924a47daa8db823de1e2eb33084be9fd29f22c24582600001516000838b8660800151600260405161073f96959493929190613b66565b60405180910390a16001925050505b60016007559695505050505050565b6000546001600160a01b031633146107875760405162461bcd60e51b815260040161051290613bf2565b600880546001600160a01b0319166001600160a01b0383161790556040517fb878cd71628ac64b2df1872301925e01164824535b02e8601077749eeeb88c3d90610642908390613380565b6000546001600160a01b031633146107fc5760405162461bcd60e51b815260040161051290613bf2565b610807838383611468565b7f5e20184b00709d9f103306958e9fb9d509f78bec1829ca7080f2c43eb2ff21a883838360405161083a93929190613eb3565b60405180910390a1505050565b6000546001600160a01b031633146108715760405162461bcd60e51b815260040161051290613bf2565b600580546001600160a01b038381166001600160a01b03198316179092556040519116907f2d025324f0a785e8c12d0a0d91a9caa49df4ef20ff87e0df7213a1d4f3157beb906108c49083908590613edb565b60405180910390a15050565b6000546001600160a01b031633146108fa5760405162461bcd60e51b815260040161051290613bf2565b61090460006114ff565b565b600154600090600160a01b900460ff16610944576001546001600160a01b031633146109445760405162461bcd60e51b8152600401610512906138e2565b600260075414156109675760405162461bcd60e51b815260040161051290613926565b600260075582516000906109849085016020908101908601613e3b565b905080608001518610156109e7576080810186905280516040517f83fb878bc850fecc32634e2924a47daa8db823de1e2eb33084be9fd29f22c245916109d59160009081908c908c90600190613ef6565b60405180910390a1600191505061074e565b60808101516109f69087613e8c565b9550610a0287876111b2565b6060810151602082015151889190889060009015610a915760606000610a2b876020015161154f565b90985093509150506001600160a01b03808216908e1614610a5e5760405162461bcd60e51b815260040161051290613f52565b610a728760200151838e8a60a0015161177d565b90945092508215610a8e57610a8e8d8489604001516000611338565b50505b610aa18483876040015186611338565b7f83fb878bc850fecc32634e2924a47daa8db823de1e2eb33084be9fd29f22c245856000015183838e89608001516001604051610ae396959493929190613f62565b60405180910390a160019550505050505060016007559695505050505050565b60038181548110610b1357600080fd5b6000918252602090912001546001600160a01b0316905081565b600154600090600160a01b900460ff16610b6b576001546001600160a01b03163314610b6b5760405162461bcd60e51b8152600401610512906138e2565b95945050505050565b6000546001600160a01b03163314610b9e5760405162461bcd60e51b815260040161051290613bf2565b600680546001600160a01b038381166001600160a01b03198316179092556040519116907f5d16ad41baeb009cd23eb8f6c7cde5c2e0cd5acf4a33926ab488875c37c37f38906108c49083908590613edb565b6000546001600160a01b03163314610c1b5760405162461bcd60e51b815260040161051290613bf2565b60008383604051610c2d929190613f90565b60405180910390209050610cae81836001600160e01b0319909116600090815260026020526040812080546001600160a01b039093166001600160a01b031993841681179091556003805460018101825592527fc2575a0e9e593c00f959f8c92f12db2869c3395a3b0502d05e2516446f71f85b9091018054909216179055565b7f58ddcdb40971f55ad1b6a8a28067274a4ffc7e9d77c3ea14a17652faa705e1978183604051610cdf929190613f9d565b60405180910390a150505050565b60026007541415610d105760405162461bcd60e51b815260040161051290613926565b600260075582151580610d46575067ffffffffffffffff4616610d396040870160208801613fab565b67ffffffffffffffff1614155b610d625760405162461bcd60e51b815260040161051290613fe6565b82151580610d9a575061014085013515801590610d9a57506000610d8e6101808701610160880161338e565b6001600160a01b031614155b610db65760405162461bcd60e51b815260040161051290613fe6565b6101408501356000610dd06101808801610160890161338e565b90506000610de661018089016101608a0161338e565b905060608615610e4e57610e02610dfd888a613ff6565b61154f565b92965090945092509050610e1e6101808a016101608b0161338e565b6001600160a01b0316836001600160a01b031614610e4e5760405162461bcd60e51b815260040161051290613f52565b610e5e60c08a0160a08b01614003565b15610f1e576008546001600160a01b03848116911614610e905760405162461bcd60e51b815260040161051290614058565b83341015610eb05760405162461bcd60e51b81526004016105129061409c565b600860009054906101000a90046001600160a01b03166001600160a01b031663d0e30db0856040518263ffffffff1660e01b81526004016000604051808303818588803b158015610f0057600080fd5b505af1158015610f14573d6000803e3d6000fd5b5050505050610f33565b610f336001600160a01b038416333087611ac0565b610f5e8a858585610f448c8e613ff6565b610f4e8b8d613ff6565b8f610f589061423e565b88611b2d565b505060016007555050505050505050565b6006546001600160a01b03163314610f995760405162461bcd60e51b81526004016105129061427e565b60005b82811015611150576000848483818110610fb857610fb861428e565b9050602002016020810190610fcd919061338e565b6001600160a01b031614156110695760004790506000836001600160a01b03168261c35090604051610ffe906142a4565b600060405180830381858888f193505050503d806000811461103c576040519150601f19603f3d011682016040523d82523d6000602084013e611041565b606091505b50509050806110625760405162461bcd60e51b8152600401610512906142e3565b505061113e565b600084848381811061107d5761107d61428e565b9050602002016020810190611092919061338e565b6001600160a01b03166370a08231306040518263ffffffff1660e01b81526004016110bd9190613380565b602060405180830381865afa1580156110da573d6000803e3d6000fd5b505050506040513d601f19601f820116820180604052508101906110fe91906142f3565b905061113c83828787868181106111175761111761428e565b905060200201602081019061112c919061338e565b6001600160a01b03169190611c9c565b505b8061114881614314565b915050610f9c565b50505050565b6000546001600160a01b031633146111805760405162461bcd60e51b815260040161051290613bf2565b6001600160a01b0381166111a65760405162461bcd60e51b81526004016105129061438c565b6111af816114ff565b50565b6008546001600160a01b038381169116141561133457600154604080516320a6037160e21b815290516000926001600160a01b0316916382980dc49160048083019260209291908290030181865afa158015611212573d6000803e3d6000fd5b505050506040513d601f19601f82011682018060405250810190611236919061439c565b9050600860009054906101000a90046001600160a01b03166001600160a01b0316816001600160a01b031663457bfa2f6040518163ffffffff1660e01b8152600401602060405180830381865afa158015611295573d6000803e3d6000fd5b505050506040513d601f19601f820116820180604052508101906112b9919061439c565b6001600160a01b0316141561133257600860009054906101000a90046001600160a01b03166001600160a01b031663d0e30db0836040518263ffffffff1660e01b81526004016000604051808303818588803b15801561131857600080fd5b505af115801561132c573d6000803e3d6000fd5b50505050505b505b5050565b8015611454576008546001600160a01b0385811691161461136b5760405162461bcd60e51b8152600401610512906143f1565b600854604051632e1a7d4d60e01b81526001600160a01b0390911690632e1a7d4d9061139b908690600401614401565b600060405180830381600087803b1580156113b557600080fd5b505af11580156113c9573d6000803e3d6000fd5b505050506000826001600160a01b03168461c350906040516113ea906142a4565b600060405180830381858888f193505050503d8060008114611428576040519150601f19603f3d011682016040523d82523d6000602084013e61142d565b606091505b505090508061144e5760405162461bcd60e51b815260040161051290614443565b50611150565b6111506001600160a01b0385168385611c9c565b6001600160a01b03831660009081526004602090815260408083206001600160e01b03198616845290915290205460ff1680151582151514156114bd5760405162461bcd60e51b815260040161051290613fe6565b506001600160a01b0390921660009081526004602090815260408083206001600160e01b0319909416835292905220805491151560ff19909216919091179055565b600080546001600160a01b038381166001600160a01b0319831681178455604051919092169283917f8be0079c531659141344cd1fd0a4f28419497f9722a3daafe3b4186f6b6457e09190a35050565b6000806000606060008061156287611cbb565b925060005b875181101561177357600460008983815181106115865761158661428e565b6020026020010151600001516001600160a01b03166001600160a01b0316815260200190815260200160002060008983815181106115c6576115c661428e565b6020026020010151602001516115db90614467565b6001600160e01b031916815260208101919091526040016000205460ff166116155760405162461bcd60e51b8152600401610512906144e0565b600080600086848151811061162c5761162c61428e565b60200260200101516001600160a01b031663358f0e1c8c86815181106116545761165461428e565b60200260200101516040518263ffffffff1660e01b8152600401611678919061454e565b606060405180830381865afa158015611695573d6000803e3d6000fd5b505050506040513d601f19601f820116820180604052508101906116b9919061455f565b919450925090506001600160a01b03861615806116e75750816001600160a01b0316866001600160a01b0316145b6117035760405162461bcd60e51b8152600401610512906145d9565b90945084906001600160a01b038516158061172f5750806001600160a01b0316856001600160a01b0316145b61174b5760405162461bcd60e51b81526004016105129061461d565b935083611758838b61462d565b9950909750955081905061176b81614314565b915050611567565b5050509193509193565b600080600080600061179089888a611dfb565b9250925092506000816001600160a01b03166370a08231306040518263ffffffff1660e01b81526004016117c49190613380565b602060405180830381865afa1580156117e1573d6000803e3d6000fd5b505050506040513d601f19601f8201168201806040525081019061180591906142f3565b905060005b8a51811015611a135760008a82815181106118275761182761428e565b60200260200101516001600160a01b0316634c6da2698d848151811061184f5761184f61428e565b60200260200101516020015188858151811061186d5761186d61428e565b6020026020010151306040518463ffffffff1660e01b815260040161189493929190614645565b600060405180830381865afa1580156118b1573d6000803e3d6000fd5b505050506040513d6000823e601f3d908101601f191682016040526118d99190810190614672565b905061192f8c83815181106118f0576118f061428e565b60200260200101516000015187848151811061190e5761190e61428e565b6020026020010151876001600160a01b0316611fb09092919063ffffffff16565b60008c83815181106119435761194361428e565b6020026020010151600001516001600160a01b03168260405161196691906146cf565b6000604051808303816000865af19150503d80600081146119a3576040519150601f19603f3d011682016040523d82523d6000602084013e6119a8565b606091505b5050905080806119b55750895b6119d15760405162461bcd60e51b81526004016105129061470f565b806119fe578683815181106119e8576119e861428e565b6020026020010151886119fb919061462d565b97505b50508080611a0b90614314565b91505061180a565b506040516370a0823160e01b81526000906001600160a01b038416906370a0823190611a43903090600401613380565b602060405180830381865afa158015611a60573d6000803e3d6000fd5b505050506040513d601f19601f82011682018060405250810190611a8491906142f3565b9050611a908282613e8c565b965060008711611ab25760405162461bcd60e51b815260040161051290614753565b505050505094509492505050565b611150846323b872dd60e01b858585604051602401611ae193929190614763565b60408051601f198184030181529190526020810180517bffffffffffffffffffffffffffffffffffffffffffffffffffffffff166001600160e01b03199093169290921790915261204d565b8351879015611b65576000611b4286846120dc565b9250905080611b635760405162461bcd60e51b8152600401610512906147bf565b505b6000611b7984600001518560800151612426565b90504667ffffffffffffffff16846020015167ffffffffffffffff161415611bf5577f0e248ac8be20725176a5f0ab093c5fbb964634d4675012f3d3ad66e69e56d5b7818a8a858b604051611bd29594939291906147cf565b60405180910390a1611bee878386600001518760c00151611338565b505061132c565b611c00848a8a61245e565b60a0840151349015611c1957611c168a34613e8c565b90505b600080875111611c2a578551611c2c565b8b5b90506000611c3f8483898b898f896124e7565b90507fbac7d3515b47f762d5edcc83b041c8ad43133089d06f60e3b8f307a66fcb6221848289602001518f8f8c610180015188604051611c85979695949392919061482b565b60405180910390a150505050505050505050505050565b6113328363a9059cbb60e01b8484604051602401611ae1929190614893565b60606000825167ffffffffffffffff811115611cd957611cd96133ca565b604051908082528060200260200182016040528015611d02578160200160208202803683370190505b50905060005b8351811015611df4576000848281518110611d2557611d2561428e565b602002602001015160200151611d3a90614467565b6001600160e01b0319811660009081526002602052604090205484519192506001600160a01b031690849084908110611d7557611d7561428e565b60200260200101906001600160a01b031690816001600160a01b03168152505060006001600160a01b0316838381518110611db257611db261428e565b60200260200101516001600160a01b03161415611de15760405162461bcd60e51b8152600401610512906148e2565b5080611dec81614314565b915050611d08565b5092915050565b60606000806000865167ffffffffffffffff811115611e1c57611e1c6133ca565b604051908082528060200260200182016040528015611e45578160200160208202803683370190505b50935060005b8751811015611f39576000868281518110611e6857611e6861428e565b60200260200101516001600160a01b031663358f0e1c8a8481518110611e9057611e9061428e565b60200260200101516040518263ffffffff1660e01b8152600401611eb4919061454e565b606060405180830381865afa158015611ed1573d6000803e3d6000fd5b505050506040513d601f19601f82011682018060405250810190611ef5919061455f565b90965094509050611f06818461462d565b925080868381518110611f1b57611f1b61428e565b60209081029190910101525080611f3181614314565b915050611e4b565b5060005b8451811015611fa55781858281518110611f5957611f5961428e565b602002602001015188611f6c91906148f2565b611f769190614927565b858281518110611f8857611f8861428e565b602090810291909101015280611f9d81614314565b915050611f3d565b505093509350939050565b600081846001600160a01b031663dd62ed3e30866040518363ffffffff1660e01b8152600401611fe1929190613edb565b602060405180830381865afa158015611ffe573d6000803e3d6000fd5b505050506040513d601f19601f8201168201806040525081019061202291906142f3565b61202c919061462d565b90506111508463095ea7b360e01b8584604051602401611ae1929190614893565b60006120a2826040518060400160405280602081526020017f5361666545524332303a206c6f772d6c6576656c2063616c6c206661696c6564815250856001600160a01b031661253b9092919063ffffffff16565b80519091501561133257808060200190518101906120c0919061493b565b6113325760405162461bcd60e51b8152600401610512906149b6565b60008060005b845181101561241d5760008060008684815181106121025761210261428e565b60200260200101516001600160a01b031663358f0e1c89868151811061212a5761212a61428e565b60200260200101516040518263ffffffff1660e01b815260040161214e919061454e565b606060405180830381865afa15801561216b573d6000803e3d6000fd5b505050506040513d601f19601f8201168201806040525081019061218f919061455f565b92509250925060008785815181106121a9576121a961428e565b60200260200101516001600160a01b0316634c6da2698a87815181106121d1576121d161428e565b60200260200101516020015186306040518463ffffffff1660e01b81526004016121fd93929190614645565b600060405180830381865afa15801561221a573d6000803e3d6000fd5b505050506040513d6000823e601f3d908101601f191682016040526122429190810190614672565b90506122768986815181106122595761225961428e565b6020908102919091010151516001600160a01b0385169086611fb0565b6040516370a0823160e01b81526000906001600160a01b038416906370a08231906122a5903090600401613380565b602060405180830381865afa1580156122c2573d6000803e3d6000fd5b505050506040513d601f19601f820116820180604052508101906122e691906142f3565b90508986815181106122fa576122fa61428e565b6020026020010151600001516001600160a01b03168260405161231d91906146cf565b6000604051808303816000865af19150503d806000811461235a576040519150601f19603f3d011682016040523d82523d6000602084013e61235f565b606091505b5050809850508761237c576000809750975050505050505061241f565b6040516370a0823160e01b81526000906001600160a01b038516906370a08231906123ab903090600401613380565b602060405180830381865afa1580156123c8573d6000803e3d6000fd5b505050506040513d601f19601f820116820180604052508101906123ec91906142f3565b90506123f88282613e8c565b612402908961462d565b9750505050505050808061241590614314565b9150506120e2565b505b9250929050565b60003383468460405160200161243f9493929190614a0d565b6040516020818303038152906040528051906020012090505b92915050565b600046846020015184848761010001518860e0015160405160200161248896959493929190614a55565b60405160208183030381529060405280519060200120905060006124ab82612554565b90506124bc81866101200151612584565b42856101000151116124e05760405162461bcd60e51b815260040161051290614b19565b5050505050565b6000806124f58988886125c0565b905061252e8885878a602001518b608001518c60400151878e60600151600160009054906101000a90046001600160a01b03168c612635565b9998505050505050505050565b606061254a84846000856126ce565b90505b9392505050565b6000816040516020016125679190614b29565b604051602081830303815290604052805190602001209050919050565b60006125908383612792565b6005549091506001600160a01b038083169116146113325760405162461bcd60e51b815260040161051290614b98565b60606040518060c0016040528085815260200183815260200184600001516001600160a01b031681526020018460c00151151581526020018460e001518152602001846101a00151151581525060405160200161261d9190614c94565b60405160208183030381529060405290509392505050565b600080600061264a8d8d8d8d8d8d8c8c6127b6565b88519193509150156126be57846001600160a01b0316634289fbb3858f8d85878d6040518763ffffffff1660e01b815260040161268b959493929190614cc4565b6000604051808303818588803b1580156126a457600080fd5b505af11580156126b8573d6000803e3d6000fd5b50505050505b509b9a5050505050505050505050565b6060824710156126f05760405162461bcd60e51b815260040161051290614d65565b6001600160a01b0385163b6127175760405162461bcd60e51b815260040161051290614da9565b600080866001600160a01b0316858760405161273391906146cf565b60006040518083038185875af1925050503d8060008114612770576040519150601f19603f3d011682016040523d82523d6000602084013e612775565b606091505b5091509150612785828286612dfd565b925050505b949350505050565b60008060006127a18585612e36565b915091506127ae81612ea3565b509392505050565b60008060018460068111156127cd576127cd61331a565b14156128c757826001600160a01b03166382980dc46040518163ffffffff1660e01b8152600401602060405180830381865afa158015612811573d6000803e3d6000fd5b505050506040513d601f19601f82011682018060405250810190612835919061439c565b905061284b6001600160a01b038a16828a611fb0565b60405163a5977fbb60e01b81526001600160a01b0382169063a5977fbb90612881908d908d908d908d908d908d90600401614dc5565b600060405180830381600087803b15801561289b57600080fd5b505af11580156128af573d6000803e3d6000fd5b505050506128c08a8a8a8a8a612f88565b9150612df0565b60028460068111156128db576128db61331a565b14156129cc57826001600160a01b031663d8257d176040518163ffffffff1660e01b8152600401602060405180830381865afa15801561291f573d6000803e3d6000fd5b505050506040513d601f19601f82011682018060405250810190612943919061439c565b90506129596001600160a01b038a16828a611fb0565b806001600160a01b031663234636248a8a8a8e8b6040518663ffffffff1660e01b815260040161298d959493929190614e14565b600060405180830381600087803b1580156129a757600080fd5b505af11580156129bb573d6000803e3d6000fd5b505050506128c08a8a8a8a8a612fc8565b60038460068111156129e0576129e061331a565b1415612ae457826001600160a01b031663dfa2dbaf6040518163ffffffff1660e01b8152600401602060405180830381865afa158015612a24573d6000803e3d6000fd5b505050506040513d601f19601f82011682018060405250810190612a48919061439c565b9050612a5e6001600160a01b038a16828a611fb0565b604051636f3c863f60e11b81526001600160a01b0382169063de790c7e90612a90908c908c908f908c90600401614e56565b600060405180830381600087803b158015612aaa57600080fd5b505af1158015612abe573d6000803e3d6000fd5b50612ad8925050506001600160a01b038a16826000612fe7565b6128c08a8a8a8961309b565b6004846006811115612af857612af861331a565b1415612bed57826001600160a01b031663c66a9c5a6040518163ffffffff1660e01b8152600401602060405180830381865afa158015612b3c573d6000803e3d6000fd5b505050506040513d601f19601f82011682018060405250810190612b60919061439c565b9050612b766001600160a01b038a16828a611fb0565b806001600160a01b031663234636248a8a8a8e8b6040518663ffffffff1660e01b8152600401612baa959493929190614e14565b6020604051808303816000875af1158015612bc9573d6000803e3d6000fd5b505050506040513d601f19601f820116820180604052508101906128c091906142f3565b6005846006811115612c0157612c0161331a565b1415612d1257826001600160a01b03166395b12c276040518163ffffffff1660e01b8152600401602060405180830381865afa158015612c45573d6000803e3d6000fd5b505050506040513d601f19601f82011682018060405250810190612c69919061439c565b9050612c7f6001600160a01b038a16828a611fb0565b806001600160a01b031663a00293018a8a8a8e8b6040518663ffffffff1660e01b8152600401612cb3959493929190614e14565b6020604051808303816000875af1158015612cd2573d6000803e3d6000fd5b505050506040513d601f19601f82011682018060405250810190612cf691906142f3565b9150612d0d6001600160a01b038a16826000612fe7565b612df0565b6006846006811115612d2657612d2661331a565b1415612dd857826001600160a01b03166395b12c276040518163ffffffff1660e01b8152600401602060405180830381865afa158015612d6a573d6000803e3d6000fd5b505050506040513d601f19601f82011682018060405250810190612d8e919061439c565b9050612da46001600160a01b038a16828a611fb0565b806001600160a01b0316639e422c338a8a8a8e8b6040518663ffffffff1660e01b8152600401612cb3959493929190614e14565b60405162461bcd60e51b815260040161051290614ebf565b9850989650505050505050565b60608315612e0c57508161254d565b825115612e1c5782518084602001fd5b8160405162461bcd60e51b81526004016105129190614ecf565b600080825160411415612e6d5760208301516040840151606085015160001a612e61878285856130d8565b9450945050505061241f565b825160401415612e975760208301516040840151612e8c8683836131b8565b93509350505061241f565b5060009050600261241f565b6000816004811115612eb757612eb761331a565b1415612ec05750565b6001816004811115612ed457612ed461331a565b1415612ef25760405162461bcd60e51b815260040161051290614f14565b6002816004811115612f0657612f0661331a565b1415612f245760405162461bcd60e51b815260040161051290614f58565b6003816004811115612f3857612f3861331a565b1415612f565760405162461bcd60e51b815260040161051290614fa7565b6004816004811115612f6a57612f6a61331a565b14156111af5760405162461bcd60e51b815260040161051290614ff6565b600030868686868646604051602001612fa79796959493929190615006565b60405160208183030381529060405280519060200120905095945050505050565b600030858585898646604051602001612fa79796959493929190615081565b8015806130605750604051636eb1769f60e11b81526001600160a01b0384169063dd62ed3e9061301d9030908690600401613edb565b602060405180830381865afa15801561303a573d6000803e3d6000fd5b505050506040513d601f19601f8201168201806040525081019061305e91906142f3565b155b61307c5760405162461bcd60e51b815260040161051290615137565b6113328363095ea7b360e01b8484604051602401611ae1929190614893565b60003084848785466040516020016130b896959493929190615147565b604051602081830303815290604052805190602001209050949350505050565b6000807f7fffffffffffffffffffffffffffffff5d576e7357a4501ddfe92f46681b20a083111561310f57506000905060036131af565b8460ff16601b1415801561312757508460ff16601c14155b1561313857506000905060046131af565b60006001878787876040516000815260200160405260405161315d94939291906151ba565b6020604051602081039080840390855afa15801561317f573d6000803e3d6000fd5b5050604051601f1901519150506001600160a01b0381166131a8576000600192509250506131af565b9150600090505b94509492505050565b6000807f7fffffffffffffffffffffffffffffffffffffffffffffffffffffffffffffff8316816131ee60ff86901c601b61462d565b90506131fc878288856130d8565b935093505050935093915050565b60006001600160a01b038216612458565b6132248161320a565b81146111af57600080fd5b80356124588161321b565b80613224565b80356124588161323a565b60008083601f84011261326057613260600080fd5b50813567ffffffffffffffff81111561327b5761327b600080fd5b60208301915083600182028301111561241f5761241f600080fd5b6000806000806000608086880312156132b1576132b1600080fd5b60006132bd888861322f565b95505060206132ce88828901613240565b945050604086013567ffffffffffffffff8111156132ee576132ee600080fd5b6132fa8882890161324b565b9350935050606061330d8882890161322f565b9150509295509295909350565b634e487b7160e01b600052602160045260246000fd5b600381106111af576111af61331a565b8061334a81613330565b919050565b600061245882613340565b6133638161334f565b82525050565b60208101612458828461335a565b6133638161320a565b602081016124588284613377565b6000602082840312156133a3576133a3600080fd5b600061278a848461322f565b67ffffffffffffffff8116613224565b8035612458816133af565b634e487b7160e01b600052604160045260246000fd5b601f19601f830116810181811067ffffffffffffffff82111715613406576134066133ca565b6040525050565b600061341860405190565b905061334a82826133e0565b600067ffffffffffffffff82111561343e5761343e6133ca565b601f19601f83011660200192915050565b82818337506000910152565b600061346e61346984613424565b61340d565b90508281526020810184848401111561348957613489600080fd5b6127ae84828561344f565b600082601f8301126134a8576134a8600080fd5b813561278a84826020860161345b565b60008060008060008060c087890312156134d4576134d4600080fd5b60006134e0898961322f565b96505060206134f189828a0161322f565b955050604061350289828a01613240565b945050606061351389828a016133bf565b935050608087013567ffffffffffffffff81111561353357613533600080fd5b61353f89828a01613494565b92505060a061355089828a0161322f565b9150509295509295509295565b6001600160e01b03198116613224565b80356124588161355d565b801515613224565b803561245881613578565b6000806000606084860312156135a3576135a3600080fd5b60006135af868661322f565b93505060206135c08682870161356d565b92505060406135d186828701613580565b9150509250925092565b6000602082840312156135f0576135f0600080fd5b600061278a8484613240565b6000806040838503121561361257613612600080fd5b600061361e858561322f565b925050602061362f8582860161356d565b9150509250929050565b801515613363565b602081016124588284613639565b60008060008060006080868803121561366a5761366a600080fd5b6000613676888861322f565b95505060206132ce888289016133bf565b60008060006040848603121561369f5761369f600080fd5b833567ffffffffffffffff8111156136b9576136b9600080fd5b6136c58682870161324b565b935093505060206135d18682870161322f565b60006101c082840312156136ee576136ee600080fd5b50919050565b60008083601f84011261370957613709600080fd5b50813567ffffffffffffffff81111561372457613724600080fd5b60208301915083602082028301111561241f5761241f600080fd5b6000806000806000806080878903121561375b5761375b600080fd5b6000613767898961322f565b965050602087013567ffffffffffffffff81111561378757613787600080fd5b61379389828a016136d8565b955050604087013567ffffffffffffffff8111156137b3576137b3600080fd5b6137bf89828a016136f4565b9450945050606087013567ffffffffffffffff8111156137e1576137e1600080fd5b6137ed89828a016136f4565b92509250509295509295509295565b60008060006040848603121561381457613814600080fd5b833567ffffffffffffffff81111561382e5761382e600080fd5b6136c5868287016136f4565b60006020828403121561384f5761384f600080fd5b600061278a848461356d565b60006124586001600160a01b038316613872565b90565b6001600160a01b031690565b60006124588261385b565b60006124588261387e565b61336381613889565b602081016124588284613894565b601981526000602082017f63616c6c6572206973206e6f74206d6573736167652062757300000000000000815291505b5060200190565b60208082528101612458816138ab565b601f81526000602082017f5265656e7472616e637947756172643a207265656e7472616e742063616c6c00815291506138db565b60208082528101612458816138f2565b600067ffffffffffffffff821115613950576139506133ca565b5060209081020190565b60006040828403121561396f5761396f600080fd5b613979604061340d565b90506000613987848461322f565b825250602082013567ffffffffffffffff8111156139a7576139a7600080fd5b6139b384828501613494565b60208301525092915050565b60006139cd61346984613936565b838152905060208082019084028301858111156139ec576139ec600080fd5b835b81811015613a2d57803567ffffffffffffffff811115613a1057613a10600080fd5b808601613a1d898261395a565b85525050602092830192016139ee565b5050509392505050565b600082601f830112613a4b57613a4b600080fd5b813561278a8482602086016139bf565b600060c08284031215613a7057613a70600080fd5b613a7a60c061340d565b90506000613a888484613240565b825250602082013567ffffffffffffffff811115613aa857613aa8600080fd5b613ab484828501613a37565b6020830152506040613ac88482850161322f565b6040830152506060613adc84828501613580565b6060830152506080613af084828501613240565b60808301525060a0613b0484828501613580565b60a08301525092915050565b600060208284031215613b2557613b25600080fd5b813567ffffffffffffffff811115613b3f57613b3f600080fd5b61278a84828501613a5b565b80613363565b600061245861386f8381565b61336381613b51565b60c08101613b748289613b4b565b613b816020830188613b5d565b613b8e6040830187613b4b565b613b9b6060830186613377565b613ba86080830185613b4b565b613bb560a083018461335a565b979650505050505050565b60208082527f4f776e61626c653a2063616c6c6572206973206e6f7420746865206f776e6572910190815260006138db565b6020808252810161245881613bc0565b80516124588161323a565b80516124588161321b565b60005b83811015613c33578181015183820152602001613c1b565b838111156111505750506000910152565b6000613c5261346984613424565b905082815260208101848484011115613c6d57613c6d600080fd5b6127ae848285613c18565b600082601f830112613c8c57613c8c600080fd5b815161278a848260208601613c44565b600060408284031215613cb157613cb1600080fd5b613cbb604061340d565b90506000613cc98484613c0d565b825250602082015167ffffffffffffffff811115613ce957613ce9600080fd5b6139b384828501613c78565b6000613d0361346984613936565b83815290506020808201908402830185811115613d2257613d22600080fd5b835b81811015613a2d57805167ffffffffffffffff811115613d4657613d46600080fd5b808601613d538982613c9c565b8552505060209283019201613d24565b600082601f830112613d7757613d77600080fd5b815161278a848260208601613cf5565b805161245881613578565b600060c08284031215613da757613da7600080fd5b613db160c061340d565b90506000613dbf8484613c02565b825250602082015167ffffffffffffffff811115613ddf57613ddf600080fd5b613deb84828501613d63565b6020830152506040613dff84828501613c0d565b6040830152506060613e1384828501613d87565b6060830152506080613e2784828501613c02565b60808301525060a0613b0484828501613d87565b600060208284031215613e5057613e50600080fd5b815167ffffffffffffffff811115613e6a57613e6a600080fd5b61278a84828501613d92565b634e487b7160e01b600052601160045260246000fd5b600082821015613e9e57613e9e613e76565b500390565b6001600160e01b03198116613363565b60608101613ec18286613377565b613ece6020830185613ea3565b61278a6040830184613639565b60408101613ee98285613377565b61254d6020830184613377565b60c08101613f048289613b4b565b613f116020830188613b5d565b613b8e6040830187613b5d565b600781526000602082017f746b696e206d6d00000000000000000000000000000000000000000000000000815291506138db565b6020808252810161245881613f1e565b60c08101613f708289613b4b565b613b816020830188613b4b565b6000613f8a83858461344f565b50500190565b600061278a828486613f7d565b60408101613ee98285613ea3565b600060208284031215613fc057613fc0600080fd5b600061278a84846133bf565b600381526000602082016206e6f760ec1b815291506138db565b6020808252810161245881613fcc565b600061254d3684846139bf565b60006020828403121561401857614018600080fd5b600061278a8484613580565b601281526000602082017f746b696e206e6f206e6174697665577261700000000000000000000000000000815291506138db565b6020808252810161245881614024565b600b81526000602082017f696e7366636e7420616d74000000000000000000000000000000000000000000815291506138db565b6020808252810161245881614068565b63ffffffff8116613224565b8035612458816140ac565b600781106111af57600080fd5b8035612458816140c3565b60006101c082840312156140f1576140f1600080fd5b6140fc6101c061340d565b9050600061410a848461322f565b825250602061411b848483016133bf565b602083015250604061412f848285016140b8565b6040830152506060614143848285016140d0565b6060830152506080614157848285016133bf565b60808301525060a061416b84828501613580565b60a08301525060c061417f84828501613580565b60c08301525060e061419384828501613240565b60e0830152506101006141a884828501613240565b6101008301525061012082013567ffffffffffffffff8111156141cd576141cd600080fd5b6141d984828501613494565b610120830152506101406141ef84828501613240565b610140830152506101606142058482850161322f565b6101608301525061018061421b8482850161322f565b610180830152506101a061423184828501613580565b6101a08301525092915050565b600061245836836140db565b601181526000602082017f6e6f742066656520636f6c6c6563746f72000000000000000000000000000000815291506138db565b602080825281016124588161424a565b634e487b7160e01b600052603260045260246000fd5b60006124588261386f565b601281526000602082017f73656e64206e6174697665206661696c65640000000000000000000000000000815291506138db565b60208082528101612458816142af565b60006020828403121561430857614308600080fd5b600061278a8484613c02565b600060001982141561432857614328613e76565b5060010190565b602681526000602082017f4f776e61626c653a206e6577206f776e657220697320746865207a65726f206181527f6464726573730000000000000000000000000000000000000000000000000000602082015291505b5060400190565b602080825281016124588161432f565b6000602082840312156143b1576143b1600080fd5b600061278a8484613c0d565b600c81526000602082017f746b206e6f206e61746976650000000000000000000000000000000000000000815291506138db565b60208082528101612458816143bd565b602081016124588284613b4b565b600981526000602082017f73656e64206661696c0000000000000000000000000000000000000000000000815291506138db565b602080825281016124588161440f565b600061245882516001600160e01b03191690565b6000614471825190565b6020830161447e81614453565b925060048210156144a5576144a06001600160e01b0319836004036008021b90565b831692505b5050919050565b600f81526000602082017f756e737570706f72746564206465780000000000000000000000000000000000815291506138db565b60208082528101612458816144ac565b60006144fa825190565b808452602084019350614511818560208601613c18565b601f01601f19169290920192915050565b805160009060408401906145368582613377565b5060208301518482036020860152610b6b82826144f0565b6020808252810161254d8184614522565b60008060006060848603121561457757614577600080fd5b60006145838686613c02565b935050602061459486828701613c0d565b92505060406135d186828701613c0d565b600d81526000602082017f746b696e206d69736d6174636800000000000000000000000000000000000000815291506138db565b60208082528101612458816145a5565b600c81526000602082017f746b6f206d69736d617463680000000000000000000000000000000000000000815291506138db565b60208082528101612458816145e9565b6000821982111561464057614640613e76565b500190565b6060808252810161465681866144f0565b90506146656020830185613b4b565b61278a6040830184613377565b60006020828403121561468757614687600080fd5b815167ffffffffffffffff8111156146a1576146a1600080fd5b61278a84828501613c78565b60006146b7825190565b6146c5818560208601613c18565b9290920192915050565b600061254d82846146ad565b600b81526000602082017f73776170206661696c6564000000000000000000000000000000000000000000815291506138db565b60208082528101612458816146db565b601081526000602082017f616c6c207377617073206661696c656400000000000000000000000000000000815291506138db565b602080825281016124588161471f565b606081016147718286613377565b61477e6020830185613377565b61278a6040830184613b4b565b600981526000602082017f73776170206661696c0000000000000000000000000000000000000000000000815291506138db565b602080825281016124588161478b565b60a081016147dd8288613b4b565b6147ea6020830187613b4b565b6147f76040830186613377565b6148046060830185613b4b565b6148116080830184613377565b9695505050505050565b67ffffffffffffffff8116613363565b60e08101614839828a613b4b565b6148466020830189613b4b565b614853604083018861481b565b6148606060830187613b4b565b61486d6080830186613377565b61487a60a0830185613377565b61488760c0830184613377565b98975050505050505050565b604081016148a18285613377565b61254d6020830184613b4b565b600c81526000602082017f636463206e6f20666f756e640000000000000000000000000000000000000000815291506138db565b60208082528101612458816148ae565b600081600019048311821515161561490c5761490c613e76565b500290565b634e487b7160e01b600052601260045260246000fd5b60008261493657614936614911565b500490565b60006020828403121561495057614950600080fd5b600061278a8484613d87565b602a81526000602082017f5361666545524332303a204552433230206f7065726174696f6e20646964206e81527f6f7420737563636565640000000000000000000000000000000000000000000060208201529150614385565b602080825281016124588161495c565b60006124588260601b90565b6000612458826149c6565b6133636149e98261320a565b6149d2565b60006124588260c01b90565b61336367ffffffffffffffff82166149ee565b6000614a1982876149dd565b601482019150614a2982866149dd565b601482019150614a3982856149fa565b600882019150614a4982846149fa565b50600801949350505050565b7f6578656375746f722066656500000000000000000000000000000000000000008152600c016000614a8782896149fa565b600882019150614a9782886149fa565b600882019150614aa78287613b4b565b602082019150614ab782866149dd565b601482019150614ac78285613b4b565b602082019150614ad78284613b4b565b506020019695505050505050565b601181526000602082017f646561646c696e65206578636565646564000000000000000000000000000000815291506138db565b6020808252810161245881614ae5565b7f19457468657265756d205369676e6564204d6573736167653a0a3332000000008152601c016000614b5b8284613b4b565b50602001919050565b600e81526000602082017f696e76616c6964207369676e6572000000000000000000000000000000000000815291506138db565b6020808252810161245881614b64565b600061254d8383614522565b6000614bbe825190565b80845260208401935083602082028501614bd88560200190565b8060005b85811015614c0d5784840389528151614bf58582614ba8565b94506020830160209a909a0199925050600101614bdc565b5091979650505050505050565b805160009060c0840190614c2e8582613b4b565b5060208301518482036020860152614c468282614bb4565b9150506040830151614c5b6040860182613377565b506060830151614c6e6060860182613639565b506080830151614c816080860182613b4b565b5060a08301516127ae60a0860182613639565b6020808252810161254d8184614c1a565b600061245861386f67ffffffffffffffff841681565b61336381614ca5565b60a08101614cd28288613377565b614cdf6020830187614cbb565b614cec6040830186613377565b614cf96060830185613b4b565b8181036080830152613bb581846144f0565b602681526000602082017f416464726573733a20696e73756666696369656e742062616c616e636520666f81527f722063616c6c000000000000000000000000000000000000000000000000000060208201529150614385565b6020808252810161245881614d0b565b601d81526000602082017f416464726573733a2063616c6c20746f206e6f6e2d636f6e7472616374000000815291506138db565b6020808252810161245881614d75565b63ffffffff8116613363565b60c08101614dd38289613377565b614de06020830188613377565b614ded6040830187613b4b565b614dfa606083018661481b565b614e07608083018561481b565b613bb560a0830184614db9565b60a08101614e228288613377565b614e2f6020830187613b4b565b614e3c604083018661481b565b614e496060830185613377565b614811608083018461481b565b60808101614e648287613377565b614e716020830186613b4b565b614e7e6040830185613377565b610b6b606083018461481b565b601981526000602082017f6272696467652074797065206e6f7420737570706f7274656400000000000000815291506138db565b6020808252810161245881614e8b565b6020808252810161254d81846144f0565b601881526000602082017f45434453413a20696e76616c6964207369676e61747572650000000000000000815291506138db565b6020808252810161245881614ee0565b601f81526000602082017f45434453413a20696e76616c6964207369676e6174757265206c656e67746800815291506138db565b6020808252810161245881614f24565b602281526000602082017f45434453413a20696e76616c6964207369676e6174757265202773272076616c815261756560f01b60208201529150614385565b6020808252810161245881614f68565b602281526000602082017f45434453413a20696e76616c6964207369676e6174757265202776272076616c815261756560f01b60208201529150614385565b6020808252810161245881614fb7565b6000615012828a6149dd565b60148201915061502282896149dd565b60148201915061503282886149dd565b6014820191506150428287613b4b565b60208201915061505282866149fa565b60088201915061506282856149fa565b60088201915061507282846149fa565b50600801979650505050505050565b600061508d828a6149dd565b60148201915061509d82896149dd565b6014820191506150ad8288613b4b565b6020820191506150bd82876149fa565b6008820191506150cd82866149dd565b60148201915061506282856149fa565b603681526000602082017f5361666545524332303a20617070726f76652066726f6d206e6f6e2d7a65726f81527f20746f206e6f6e2d7a65726f20616c6c6f77616e63650000000000000000000060208201529150614385565b60208082528101612458816150dd565b600061515382896149dd565b60148201915061516382886149dd565b6014820191506151738287613b4b565b60208201915061518382866149dd565b60148201915061519382856149fa565b6008820191506151a382846149fa565b506008019695505050505050565b60ff8116613363565b608081016151c88287613b4b565b6151d560208301866151b1565b6151e26040830185613b4b565b610b6b6060830184613b4b56fea2646970667358221220c6cf4e5a29a314e599176babe9d70fd857592f11a371523adad76943148aa0db64736f6c634300080c0033",
  "devdoc": {
    "author": "Chainhop Dex TeamPadoriku",
    "events": {
      "DirectSwap(bytes32,uint256,address,uint256,address)": {
        "params": {
          "amountIn": "the input amount approved by the sender",
          "amountOut": "the output amount gained after swapping using the input tokens",
          "id": "see _computeId()",
          "tokenIn": "the input token approved by the sender",
          "tokenOut": "the output token gained after swapping using the input tokens"
        }
      },
      "RequestDone(bytes32,uint256,uint256,address,uint256,uint8)": {
        "details": "refundAmount may be fill by either a complete refund or when allowPartialFill is on and some swaps fails in the swap routes",
        "params": {
          "dstAmount": "the final output token (after bridging and swapping) desired by the sender",
          "feeCollected": "the fee chainhop deducts from bridge out token",
          "id": "see _computeId()",
          "refundAmount": "the amount refunded to the receiver in bridge token",
          "refundToken": "bridge out token",
          "status": "see RequestStatus"
        }
      },
      "RequestSent(bytes32,bytes32,uint64,uint256,address,address,address)": {
        "params": {
          "bridgeOutReceiver": "the receiver (user or dst TransferSwapper) of the bridge token",
          "dstChainId": "destination chain id",
          "dstToken": "the final output token (after bridging and swapping) desired by the sender",
          "id": "see _computeId()",
          "srcAmount": "input amount approved by the sender",
          "srcToken": "the input token approved by the sender",
          "transferId": "the src transfer id produced by MessageSenderLib.sendMessageWithTransfer()"
        }
      }
    },
    "kind": "dev",
    "methods": {
      "executeMessage(address,uint64,bytes,address)": {
        "params": {
          "_executor": "Address who called the MessageBus execution function",
          "_message": "Arbitrary message bytes originated from and encoded by the source app contract",
          "_sender": "The address of the source app contract",
          "_srcChainId": "The source chain ID where the transfer is originated from"
        }
      },
      "executeMessageWithTransfer(address,address,uint256,uint64,bytes,address)": {
        "details": "If allowPartialFill is off, this function reverts as soon as one swap in swap routes failsThis function is called and is only callable by MessageBus. The transaction of such call is triggered by executor.Bridge contract *always* sends native token to its receiver (this contract) even though the _token field is always an ERC20 token",
        "params": {
          "_amount": "the amount of token received by this contract",
          "_token": "the token received by this contract"
        },
        "returns": {
          "_0": "ok whether the processing is successful"
        }
      },
      "executeMessageWithTransferFallback(address,address,uint256,uint64,bytes,address)": {
        "details": "Only called if executeMessageWithTransfer revertsBridge contract *always* sends native token to its receiver (this contract) even though the _token field is always an ERC20 token",
        "params": {
          "_amount": "the amount of token received by this contract",
          "_token": "the token received by this contract"
        },
        "returns": {
          "_0": "ok whether the processing is successful"
        }
      },
      "executeMessageWithTransferRefund(address,uint256,bytes,address)": {
        "details": "only MessageBus can call this function, this requires the user to get sigs of the message from SGNBridge contract *always* sends native token to its receiver (this contract) even though the _token field is always an ERC20 token",
        "params": {
          "_amount": "the amount of token received by this contract",
          "_token": "the token received by this contract"
        },
        "returns": {
          "_0": "ok whether the processing is successful"
        }
      },
      "owner()": {
        "details": "Returns the address of the current owner."
      },
      "renounceOwnership()": {
        "details": "Leaves the contract without owner. It will not be possible to call `onlyOwner` functions anymore. Can only be called by the current owner. NOTE: Renouncing ownership will leave the contract without an owner, thereby removing any functionality that is only available to the owner."
      },
      "transferOwnership(address)": {
        "details": "Transfers ownership of the contract to a new account (`newOwner`). Can only be called by the current owner."
      },
      "transferWithSwap(address,(address,uint64,uint32,uint8,uint64,bool,bool,uint256,uint256,bytes,uint256,address,address,bool),(address,bytes)[],(address,bytes)[])": {
        "details": "this field has no effect if the there is no dst swaps as the bridged tokens are sent directly to _desc.receiver",
        "params": {
          "_dstTransferSwapper": "the address of the receiving party of the bridge token (TransferSwapper) on the destination chain"
        }
      }
    },
    "stateVariables": {
      "directBridgeSenders": {
        "details": "saves the sender addresses of direct bridge transfers so that when refund happens, this contract knows who to refund the tokens to"
      }
    },
    "title": "An app that enables swapping on a chain, transferring to another chain and swapping another time on the destination chain before sending the result tokens to a user",
    "version": 1
  },
  "userdoc": {
    "events": {
      "DirectSwap(bytes32,uint256,address,uint256,address)": {
        "notice": "Emitted when requested dstChainId == srcChainId, no bridging"
      },
      "RequestDone(bytes32,uint256,uint256,address,uint256,uint8)": {
        "notice": "Emitted when operations on dst chain is done."
      },
      "RequestSent(bytes32,bytes32,uint64,uint256,address,address,address)": {
        "notice": "Emitted when operations on src chain is done, the transfer is sent through the bridge"
      }
    },
    "kind": "user",
    "methods": {
      "executeMessage(address,uint64,bytes,address)": {
        "notice": "Called by MessageBus (MessageBusReceiver)"
      },
      "executeMessageWithTransfer(address,address,uint256,uint64,bytes,address)": {
        "notice": "Executes a swap if needed, then sends the output token to the receiver"
      },
      "executeMessageWithTransferFallback(address,address,uint256,uint64,bytes,address)": {
        "notice": "Sends the received token to the receiver"
      },
      "executeMessageWithTransferRefund(address,uint256,bytes,address)": {
        "notice": "Used to trigger refund when bridging fails due to large slippage"
      },
      "nativeWrap()": {
        "notice": "erc20 wrap of the gas token of this chain, e.g. WETH"
      },
      "transferWithSwap(address,(address,uint64,uint32,uint8,uint64,bool,bool,uint256,uint256,bytes,uint256,address,address,bool),(address,bytes)[],(address,bytes)[])": {
        "notice": "swaps if needed, then transfer the token to another chain along with an instruction on how to swap on that chain"
      }
    },
    "version": 1
  },
  "storageLayout": {
    "storage": [
      {
        "astId": 7,
        "contract": "contracts/TransferSwapper.sol:TransferSwapper",
        "label": "_owner",
        "offset": 0,
        "slot": "0",
        "type": "t_address"
      },
      {
        "astId": 5955,
        "contract": "contracts/TransferSwapper.sol:TransferSwapper",
        "label": "messageBus",
        "offset": 0,
        "slot": "1",
        "type": "t_address"
      },
      {
        "astId": 5982,
        "contract": "contracts/TransferSwapper.sol:TransferSwapper",
        "label": "testMode",
        "offset": 20,
        "slot": "1",
        "type": "t_bool"
      },
      {
        "astId": 2090,
        "contract": "contracts/TransferSwapper.sol:TransferSwapper",
        "label": "selector2codec",
        "offset": 0,
        "slot": "2",
        "type": "t_mapping(t_bytes4,t_contract(ICodec)5406)"
      },
      {
        "astId": 2093,
        "contract": "contracts/TransferSwapper.sol:TransferSwapper",
        "label": "codecs",
        "offset": 0,
        "slot": "3",
        "type": "t_array(t_address)dyn_storage"
      },
      {
        "astId": 2345,
        "contract": "contracts/TransferSwapper.sol:TransferSwapper",
        "label": "dexRegistry",
        "offset": 0,
        "slot": "4",
        "type": "t_mapping(t_address,t_mapping(t_bytes4,t_bool))"
      },
      {
        "astId": 2606,
        "contract": "contracts/TransferSwapper.sol:TransferSwapper",
        "label": "signer",
        "offset": 0,
        "slot": "5",
        "type": "t_address"
      },
      {
        "astId": 2462,
        "contract": "contracts/TransferSwapper.sol:TransferSwapper",
        "label": "feeCollector",
        "offset": 0,
        "slot": "6",
        "type": "t_address"
      },
      {
        "astId": 207,
        "contract": "contracts/TransferSwapper.sol:TransferSwapper",
        "label": "_status",
        "offset": 0,
        "slot": "7",
        "type": "t_uint256"
      },
      {
        "astId": 3334,
        "contract": "contracts/TransferSwapper.sol:TransferSwapper",
        "label": "nativeWrap",
        "offset": 0,
        "slot": "8",
        "type": "t_address"
      },
      {
        "astId": 3339,
        "contract": "contracts/TransferSwapper.sol:TransferSwapper",
        "label": "directBridgeSenders",
        "offset": 0,
        "slot": "9",
        "type": "t_mapping(t_bytes32,t_address)"
      }
    ],
    "types": {
      "t_address": {
        "encoding": "inplace",
        "label": "address",
        "numberOfBytes": "20"
      },
      "t_array(t_address)dyn_storage": {
        "base": "t_address",
        "encoding": "dynamic_array",
        "label": "address[]",
        "numberOfBytes": "32"
      },
      "t_bool": {
        "encoding": "inplace",
        "label": "bool",
        "numberOfBytes": "1"
      },
      "t_bytes32": {
        "encoding": "inplace",
        "label": "bytes32",
        "numberOfBytes": "32"
      },
      "t_bytes4": {
        "encoding": "inplace",
        "label": "bytes4",
        "numberOfBytes": "4"
      },
      "t_contract(ICodec)5406": {
        "encoding": "inplace",
        "label": "contract ICodec",
        "numberOfBytes": "20"
      },
      "t_mapping(t_address,t_mapping(t_bytes4,t_bool))": {
        "encoding": "mapping",
        "key": "t_address",
        "label": "mapping(address => mapping(bytes4 => bool))",
        "numberOfBytes": "32",
        "value": "t_mapping(t_bytes4,t_bool)"
      },
      "t_mapping(t_bytes32,t_address)": {
        "encoding": "mapping",
        "key": "t_bytes32",
        "label": "mapping(bytes32 => address)",
        "numberOfBytes": "32",
        "value": "t_address"
      },
      "t_mapping(t_bytes4,t_bool)": {
        "encoding": "mapping",
        "key": "t_bytes4",
        "label": "mapping(bytes4 => bool)",
        "numberOfBytes": "32",
        "value": "t_bool"
      },
      "t_mapping(t_bytes4,t_contract(ICodec)5406)": {
        "encoding": "mapping",
        "key": "t_bytes4",
        "label": "mapping(bytes4 => contract ICodec)",
        "numberOfBytes": "32",
        "value": "t_contract(ICodec)5406"
      },
      "t_uint256": {
        "encoding": "inplace",
        "label": "uint256",
        "numberOfBytes": "32"
      }
    }
  }
}